:020000040000FA
:100000000C9462000C948A000C948A000C948A0070
:100010000C948A000C948A000C948A000C948A0038
:100020000C948A000C948A000C948A000C948A0028
:100030000C948A000C948A000C948A000C948A0018
:100040000C9447030C948A000C94B7030C9491030E
:100050000C948A000C948A000C948A000C948A00F8
:100060000C948A000C948A000000000024002700F1
:100070002A0000000000250028002B0000000000DE
:1000800023002600290004040404040404040202DA
:100090000202020203030303030301020408102007
:1000A0004080010204081020010204081020000012
:1000B0000008000201000003040700000000000027
:1000C0000000E90311241FBECFEFD8E0DEBFCDBF93
:1000D00011E0A0E0B1E0E4E7F3E102C005900D9289
:1000E000A234B107D9F721E0A2E4B1E001C01D922A
:1000F000A93FB207E1F710E0C2E6D0E004C02197C3
:10010000FE010E948D08C136D107C9F70E9428045C
:100110000C94B8090C940000833081F028F48130ED
:1001200099F08230A9F008958730A9F08830C9F09D
:100130008430B1F4809180008F7D03C08091800075
:100140008F7780938000089584B58F7784BD08955C
:1001500084B58F7DFBCF8091B0008F778093B00006
:1001600008958091B0008F7DF9CFCF93DF93282F32
:1001700030E0F901E255FF4F8491F901E656FF4F57
:10018000D491F901EA57FF4FC491CC23A1F081111A
:100190000E948C00EC2FF0E0EE0FFF1FE458FF4FA1
:1001A000A591B491EC91ED2381E090E009F480E019
:1001B000DF91CF91089580E090E0FACF1F93CF9325
:1001C000DF93282F30E0F901E255FF4F8491F901C8
:1001D000E656FF4FD491F901EA57FF4FC491CC2363
:1001E000A9F0162F81110E948C00EC2FF0E0EE0F89
:1001F000FF1FEE58FF4FA591B4918FB7F894EC9183
:10020000111108C0D095DE23DC938FBFDF91CF9111
:100210001F910895DE2BF8CF3FB7F89480914701E6
:1002200090914801A0914901B0914A0126B5A89B3F
:1002300005C02F3F19F00196A11DB11D3FBFBA2F78
:10024000A92F982F8827BC01CD01620F711D811D38
:10025000911D42E0660F771F881F991F4A95D1F7BD
:1002600008958F929F92AF92BF92CF92DF92EF92BA
:10027000FF926B017C010E940C014B015C01C114D7
:10028000D104E104F104B9F00E940C016819790964
:100290008A099B09683E73408105910580F321E03E
:1002A000C21AD108E108F10888EE880E83E0981E92
:1002B000A11CB11CE4CFFF90EF90DF90CF90BF90D6
:1002C000AF909F908F900895AF92BF92CF92DF92A0
:1002D000EF92FF920F931F93CF93DF936C017B01FB
:1002E0008B01040F151FEB015E01AE18BF08C0178C
:1002F000D10759F06991D601ED91FC910190F081FF
:10030000E02DC6010995892B79F7C501DF91CF91C1
:100310001F910F91FF90EF90DF90CF90BF90AF9023
:100320000895FC01538D448D252F30E0842F90E0FB
:10033000821B930B541710F0CF96089501970895E0
:10034000FC01918D828D981761F0A28DAE0FBF2FA9
:10035000B11D5D968C91928D9F5F9F73928F90E0FF
:1003600008958FEF9FEF0895FC01918D828D98176E
:1003700031F0828DE80FF11D858D90E008958FEFAB
:100380009FEF0895FC01918D228D892F90E0805C74
:100390009F4F821B91098F73992708958BE491E0F9
:1003A0000E94C20121E0892B09F420E0822F0895E8
:1003B00080E090E0892B29F00E94CE0181110C94FD
:1003C00000000895FC01A48DA80FB92FB11DA35AF8
:1003D000BF4F2C91848D90E001968F739927848F65
:1003E000A689B7892C93A089B1898C918370806488
:1003F0008C93938D848D981306C00288F389E02D29
:1004000080818F7D80830895EF92FF920F931F93D9
:10041000CF93DF93EC0181E0888F9B8D8C8D9813B7
:100420001AC0E889F989808185FF15C09FB7F894C3
:10043000EE89FF896083E889F9898081837080640F
:1004400080839FBF81E090E0DF91CF911F910F915A
:10045000FF90EF900895F62E0B8D10E00F5F1F4F69
:100460000F731127E02E8C8D8E110CC00FB607FC78
:10047000FACFE889F989808185FFF5CFCE010E9406
:10048000E201F1CFEB8DEC0FFD2FF11DE35AFF4F91
:10049000F0829FB7F8940B8FEA89FB898081806294
:1004A000CFCFCF93DF93EC01888D8823B9F0AA8951
:1004B000BB89E889F9898C9185FD03C0808186FD1F
:1004C0000DC00FB607FCF7CF8C9185FFF2CF80816E
:1004D00085FFEDCFCE010E94E201E9CFDF91CF9100
:1004E00008950895FF920F931F93CF93DF93F82EF3
:1004F000062FC7E0D0E010E061E0802F0E94DE0010
:100500008F2D0E94B5000C2E01C0880F0A94EAF7C7
:10051000182B60E0802F0E94DE00219768F7812F62
:10052000DF91CF911F910F91FF900895EF92FF926D
:100530000F931F93CF93DF938091EB010E94B5003F
:10054000892B31F060E070E0CB010E943101F4CFE3
:10055000DFB7F8946091EA018091EB010E9472028A
:10056000082F6091EA018091EB010E947202C82F6E
:100570006091EA018091EB010E947202182FF12C28
:10058000E12C8091EC018E151F0479F070F061E090
:100590008091EA010E94DE0060E08091EA010E9401
:1005A000DE008FEFE81AF80AECCFDFBF6C2F70E0A7
:1005B00090E080E0982F872F762F6627802B612B85
:1005C000000F000B10E030E020E0302F2227112731
:1005D0000027602B712B822B932BDF91CF911F91E2
:1005E0000F91FF90EF900895FC0101900020E9F732
:1005F0003197AF01481B590BBC018BE491E00C947F
:1006000064018F929F92AF92BF920F931F93CF93EB
:10061000DF93CDB7DEB7A1970FB6F894DEBF0FBE5C
:10062000CDBF19A2423008F44AE08E010F5D1F4F82
:10063000842E912CB12CA12CA50194010E944C0870
:10064000E62FB901CA01EA30F4F4E05DD801EE9377
:100650008D01232B242B252B79F790E080E0109738
:1006600019F0CD010E94F402A1960FB6F894DEBFF6
:100670000FBECDBFDF91CF911F910F91BF90AF9073
:100680009F908F900895E95CE1CF0C942F091F9201
:100690000F920FB60F9211242F933F938F939F9336
:1006A000AF93BF938091430190914401A091450184
:1006B000B09146013091420123E0230F2D3758F5C8
:1006C0000196A11DB11D2093420180934301909397
:1006D0004401A0934501B093460180914701909158
:1006E0004801A0914901B0914A010196A11DB11D97
:1006F0008093470190934801A0934901B0934A0128
:10070000BF91AF919F918F913F912F910F900FBE0D
:100710000F901F90189526E8230F0296A11DB11D7A
:10072000D2CF1F920F920FB60F9211242F933F93A7
:100730004F935F936F937F938F939F93AF93BF93E9
:10074000EF93FF938BE491E00E94E201FF91EF9120
:10075000BF91AF919F918F917F916F915F914F91D9
:100760003F912F910F900FBE0F901F9018951F92E1
:100770000F920FB60F9211242F938F939F93EF93A5
:10078000FF93E0915B01F0915C018081E091610158
:10079000F091620182FD1BC09081809164018F5FA6
:1007A0008F7320916501821741F0E0916401F0E0C0
:1007B000E55BFE4F958F80936401FF91EF919F91D0
:1007C0008F912F910F900FBE0F901F9018958081E1
:1007D000F4CFEBE4F1E01382128288EE93E0A0E024
:1007E000B0E084839583A683B7838AE091E0918308
:1007F000808385EC90E09587848784EC90E09787F0
:10080000868780EC90E0918B808B81EC90E0938BDD
:10081000828B82EC90E0958B848B86EC90E0978BBA
:10082000868B118E128E138E148EE8EEF1E08CE121
:1008300091E091838083158216821782108680E072
:1008400090E0A0E8BFE381879287A387B4870895EB
:10085000789484B5826084BD84B5816084BD85B59B
:10086000826085BD85B5816085BD80916E008160A7
:1008700080936E001092810080918100826080934D
:10088000810080918100816080938100809180004F
:100890008160809380008091B10084608093B1007A
:1008A0008091B00081608093B00080917A00846074
:1008B00080937A0080917A00826080937A008091A0
:1008C0007A00816080937A0080917A0080688093BA
:1008D0007A001092C100E0915B01F0915C0192E01E
:1008E0009083E0915701F09158011082E0915901F5
:1008F000F0915A018FEC808310926301E0915F01C7
:10090000F091600186E08083E0915D01F0915E01ED
:10091000808180618083E0915D01F0915E01808142
:1009200088608083E0915D01F0915E018081806844
:100930008083E0915D01F0915E0180818F7D8083F5
:1009400083E08093EA019093EB01EDE9F0E02491DC
:10095000E9E8F0E08491882399F090E0880F991FEE
:10096000FC01E859FF4FA591B491FC01EE58FF4FEF
:10097000859194918FB7F894EC91E22BEC938FBF13
:100980008091EB0190E0FC01E656FF4F24918A57DD
:100990009F4FFC0184918823C1F090E0880F991F3C
:1009A000FC01E859FF4FC591D491FC01EE58FF4F6F
:1009B000A591B4919FB7F8948881E22FE0958E239A
:1009C00088838C91E823EC939FBF81E08093EC01B6
:1009D00080E090E0AAE7B4E48093F1019093F20103
:1009E000A093F301B093F401CAE0C12CD12C76019D
:1009F0000E949602C60ED71EE81EF91E60E070E047
:100A0000CB010E943101C15099F7C701B6012AE01C
:100A100030E040E050E00E946E08CA01B9010E9437
:100A200025070E94ED066093ED017093EE0180931F
:100A3000EF019093F001C0E0D0E00E9496026B01BC
:100A40007C0160E070E0CB010E9431018091ED01FA
:100A50009091EE01A091EF01B091F001A7019601F4
:100A6000281B390B4A0B5B0BCA01B9010E942507F1
:100A70002091F1013091F2014091F3015091F40184
:100A80000E947B0620E030E04AE754E40E947B06A7
:100A90006B017C014B015C0180E291E00E94F40259
:100AA000A7019601C701B6010E9447088823E9F013
:100AB00088E291E00E94F40284E391E00E94F40253
:100AC0008EE391E00E94F40268EE73E080E090E033
:100AD0000E943101209709F4B0CF0E94CE018823F3
:100AE00009F4ABCF0E940000A8CF26013701E8949B
:100AF00077F82FEF3FEF4FE75FE7C301B2010E94A6
:100B0000470881110DC02FEF3FEF4FE75FE7C301AB
:100B1000B2010E94760618161CF48CE291E0CACF4E
:100B20002FEF3FEF4FE75FE4C701B6010E94D50703
:100B300018161CF480E391E0BDCF2FEF3FEF4FE795
:100B40005FECC701B6010E94760687FDF3CF20E077
:100B500030E0A901C701B6010E94760687FF0BC0ED
:100B60006DE28BE491E00E94040246015701B7FA5E
:100B7000B094B7F8B0942AE037ED43EA5BE3C501DF
:100B8000B4010E940A064B015C010E94F4066B014D
:100B90007C010E9423079B01AC01C501B4010E94A6
:100BA00009064B015C014AE0C701B6010E9401033E
:100BB0006EE28BE491E00E94040220E030E040E22B
:100BC00051E4C501B4010E94DA074B015C010E94A7
:100BD000F4066B01F12CE12C4AE0C701B6010E943A
:100BE0000103C701B6010E9423079B01AC01C501A7
:100BF000B4010E94090620E030E040E251E40E9486
:100C0000DA070E94F40690E080E04AE00E940103C7
:100C100053CF5058BB27AA270E9421060C949B074C
:100C20000E948D0738F00E94940720F039F49F3F0E
:100C300019F426F40C948A070EF4E095E7FB0C9463
:100C40008407E92F0E94AC0758F3BA1762077307AD
:100C50008407950720F079F4A6F50C94CE070EF4DE
:100C6000E0950B2EBA2FA02D0B01B90190010C01BC
:100C7000CA01A0011124FF27591B99F0593F50F4D4
:100C8000503E68F11A16F040A22F232F342F44272C
:100C9000585FF3CF469537952795A795F040539524
:100CA000C9F77EF41F16BA0B620B730B840BBAF0F4
:100CB0009150A1F0FF0FBB1F661F771F881FC2F75F
:100CC0000EC0BA0F621F731F841F48F48795779573
:100CD0006795B795F7959E3F08F0B0CF9395880F2D
:100CE00008F09927EE0F9795879508950E94600761
:100CF00008F481E008950E948F060C949B070E94DF
:100D0000940758F00E948D0740F029F45F3F29F0C6
:100D10000C94840751110C94CF070C948A070E94FD
:100D2000AC0768F39923B1F3552391F3951B550B49
:100D3000BB27AA2762177307840738F09F5F5F4FAE
:100D4000220F331F441FAA1FA9F335D00E2E3AF0ED
:100D5000E0E832D091505040E695001CCAF72BD005
:100D6000FE2F29D0660F771F881FBB1F2617370756
:100D70004807AB07B0E809F0BB0B802DBF01FF2788
:100D800093585F4F3AF09E3F510578F00C948407DA
:100D90000C94CF075F3FE4F3983ED4F386957795A4
:100DA0006795B795F7959F5FC9F7880F911D969541
:100DB000879597F90895E1E0660F771F881FBB1F9D
:100DC000621773078407BA0720F0621B730B840B4A
:100DD000BA0BEE1F88F7E09508950E94F406689418
:100DE000B1110C94CF0708950E94B40788F09F5763
:100DF00098F0B92F9927B751B0F0E1F0660F771F3F
:100E0000881F991F1AF0BA95C9F714C0B13091F034
:100E10000E94CE07B1E008950C94CE07672F782F7B
:100E20008827B85F39F0B93FCCF3869577956795F9
:100E3000B395D9F73EF490958095709561957F4F65
:100E40008F4F9F4F0895E89409C097FB3EF490950B
:100E50008095709561957F4F8F4F9F4F9923A9F093
:100E6000F92F96E9BB279395F69587957795679522
:100E7000B795F111F8CFFAF4BB0F11F460FF1BC066
:100E80006F5F7F4F8F4F9F4F16C0882311F096E9F9
:100E900011C0772321F09EE8872F762F05C06623A7
:100EA00071F096E8862F70E060E02AF09A95660F60
:100EB000771F881FDAF7880F9695879597F9089519
:100EC000990F0008550FAA0BE0E8FEEF161617065B
:100ED000E807F907C0F012161306E407F50798F0C3
:100EE000621B730B840B950B39F40A2661F0232BDC
:100EF000242B252B21F408950A2609F4A140A69558
:100F00008FEF811D811D089597F99F6780E870E03C
:100F100060E008959FEF80EC089500240A9416166F
:100F2000170618060906089500240A9412161306D7
:100F3000140605060895092E0394000C11F4882365
:100F400052F0BB0F40F4BF2B11F460FF04C06F5F81
:100F50007F4F8F4F9F4F089557FD9058440F551F57
:100F600059F05F3F71F04795880F97FB991F61F02B
:100F70009F3F79F087950895121613061406551FA2
:100F8000F2CF4695F1DF08C0161617061806991F0E
:100F9000F1CF86957105610508940895E894BB2703
:100FA00066277727CB0197F908950E94600708F418
:100FB0008FEF08950E94ED070C949B070E948D0708
:100FC00038F00E94940720F0952311F00C948407C8
:100FD0000C948A0711240C94CF070E94AC0770F37D
:100FE000959FC1F3950F50E0551F629FF001729FCE
:100FF000BB27F00DB11D639FAA27F00DB11DAA1FDD
:10100000649F6627B00DA11D661F829F2227B00D29
:10101000A11D621F739FB00DA11D621F839FA00DB4
:10102000611D221F749F3327A00D611D231F849F04
:10103000600D211D822F762F6A2F11249F5750405B
:101040009AF0F1F088234AF0EE0FFF1FBB1F661FD6
:10105000771F881F91505040A9F79E3F510580F09F
:101060000C9484070C94CF075F3FE4F3983ED4F3CD
:10107000869577956795B795F795E7959F5FC1F743
:10108000FE2B880F911D9695879597F908950E94DC
:101090006007880B990B0895A1E21A2EAA1BBB1BAF
:1010A000FD010DC0AA1FBB1FEE1FFF1FA217B30734
:1010B000E407F50720F0A21BB30BE40BF50B661F4A
:1010C000771F881F991F1A9469F76095709580950E
:1010D00090959B01AC01BD01CF010895052E97FBB2
:1010E0001EF400940E94850857FD07D00E944C080A
:1010F00007FC03D04EF40C9485085095409530952C
:1011000021953F4F4F4F5F4F089590958095709573
:1011100061957F4F8F4F9F4F0895EE0FFF1F0590F2
:10112000F491E02D09940F931F93CF93DF938230B6
:10113000910510F482E090E0E091F701F091F80160
:1011400030E020E0B0E0A0E0309799F421153105BF
:1011500009F44AC0281B390B24303105D8F58A819F
:101160009B816115710589F1FB0193838283FE01E7
:1011700011C0408151810281138148175907E0F065
:101180004817590799F4109761F012960C9312972B
:1011900013961C933296CF01DF91CF911F910F913F
:1011A00008950093F7011093F801F4CF211531054C
:1011B00051F04217530738F0A901DB019A01BD0134
:1011C000DF01F801C1CFEF01F9CF9093F8018093CF
:1011D000F701CDCFFE01E20FF31F819391932250CF
:1011E000310939832883D7CF2091F5013091F60159
:1011F000232B41F420910201309103013093F60139
:101200002093F50120910001309101012115310554
:1012100041F42DB73EB74091040150910501241BC4
:10122000350BE091F501F091F601E217F307A0F418
:101230002E1B3F0B2817390778F0AC014E5F5F4F2C
:101240002417350748F04E0F5F1F5093F601409367
:10125000F501819391939FCFF0E0E0E09CCFCF9395
:10126000DF930097E9F0FC01329713821282A0917C
:10127000F701B091F801ED0130E020E01097A1F402
:1012800020813181820F931F2091F5013091F60169
:101290002817390709F061C0F093F601E093F501D2
:1012A000DF91CF910895EA01CE17DF07E8F54A8173
:1012B0005B819E0141155105B1F7E901FB83EA838A
:1012C00049915991C40FD51FEC17FD0761F4808136
:1012D00091810296840F951FE90199838883828109
:1012E00093819B838A83F0E0E0E012968D919C913C
:1012F00013970097B9F52D913C911197CD01029666
:10130000820F931F2091F5013091F60128173907BC
:1013100039F6309751F51092F8011092F701B09319
:10132000F601A093F501BCCFD383C28340815181E4
:10133000840F951FC817D90761F44E5F5F4F8881EE
:101340009981480F591F518340838A819B819383E0
:1013500082832115310509F0B0CFF093F801E093B5
:10136000F7019ECFFD01DC01C0CF13821282D7CFDF
:10137000F894FFCF0000F901800000000000040293
:10138000640191015102C201A001B40100000000FA
:101390007102450342657261743A20006E616E000D
:1013A000696E66006F766600206B696C6F677261AC
:0613B0006D000D0A0000B3
:107E0000112484B714BE81FFF0D085E080938100F7
:107E100082E08093C00088E18093C10086E0809377
:107E2000C20080E18093C4008EE0C9D0259A86E02C
:107E300020E33CEF91E0309385002093840096BBD3
:107E4000B09BFECF1D9AA8958150A9F7CC24DD24C4
:107E500088248394B5E0AB2EA1E19A2EF3E0BF2EE7
:107E6000A2D0813461F49FD0082FAFD0023811F036
:107E7000013811F484E001C083E08DD089C08234E0
:107E800011F484E103C0853419F485E0A6D080C0E4
:107E9000853579F488D0E82EFF2485D0082F10E0AE
:107EA000102F00270E291F29000F111F8ED06801E7
:107EB0006FC0863521F484E090D080E0DECF843638
:107EC00009F040C070D06FD0082F6DD080E0C81688
:107ED00080E7D80618F4F601B7BEE895C0E0D1E017
:107EE00062D089930C17E1F7F0E0CF16F0E7DF06D8
:107EF00018F0F601B7BEE89568D007B600FCFDCFD4
:107F0000A601A0E0B1E02C9130E011968C91119780
:107F100090E0982F8827822B932B1296FA010C0160
:107F200087BEE89511244E5F5F4FF1E0A038BF0790
:107F300051F7F601A7BEE89507B600FCFDCF97BE46
:107F4000E89526C08437B1F42ED02DD0F82E2BD052
:107F50003CD0F601EF2C8F010F5F1F4F84911BD097
:107F6000EA94F801C1F70894C11CD11CFA94CF0C13
:107F7000D11C0EC0853739F428D08EE10CD085E9AC
:107F80000AD08FE07ACF813511F488E018D01DD067
:107F900080E101D065CF982F8091C00085FFFCCF94
:107FA0009093C60008958091C00087FFFCCF809118
:107FB000C00084FD01C0A8958091C6000895E0E648
:107FC000F0E098E1908380830895EDDF803219F02E
:107FD00088E0F5DFFFCF84E1DECF1F93182FE3DFCA
:107FE0001150E9F7F2DF1F91089580E0E8DFEE27F6
:047FF000FF270994CA
:027FFE00040479
:00000001FF
